:020000040800F2
:10000000C0060020491B0008A5020008A70200083E
:10001000AB020008AF020008B302000800000000B5
:10002000000000000000000000000000B70200080F
:10003000B902000800000000BB020008BD02000871
:10004000631B0008631B0008631B0008631B000898
:10005000631B0008631B0008631B0008631B000888
:10006000631B0008631B0008631B0008631B000878
:10007000631B0008631B0008631B0008631B000868
:10008000631B0008631B0008631B0008631B000858
:10009000631B0008631B0008631B0008631B000848
:1000A000631B0008631B0008631B0008631B000838
:1000B000631B0008631B0008631B0008631B000828
:1000C000631B0008631B0008631B0008631B000818
:1000D000631B0008631B0008631B0008631B000808
:1000E000631B0008631B0008631B000800F002F894
:1000F00000F03AF80AA090E8000C82448344AAF188
:100100000107DA4501D100F02FF8AFF2090EBAE885
:100110000F0013F0010F18BFFB1A43F0010318473B
:10012000DC2F0000FC2F0000103A24BF78C878C1F3
:10013000FAD8520724BF30C830C144BF04680C60ED
:10014000704700000023002400250026103A28BF35
:1001500078C1FBD8520728BF30C148BF0B60704739
:100160001FB51FBD10B510BD02F04DFA1146FFF7C7
:10017000F7FF00F009F802F06BFA03B4FFF7F2FFA3
:1001800003BC02F06FFA00004FF0000800260024C4
:100190000027002500BF00F083F94FF0E020006940
:1001A00040F001004FF0E021086101F0EDFC4FF458
:1001B000A06000F0CDF901F013FE4FF4E151C7202B
:1001C00001F050FD4FF4E151C72001F090FD4FF4D4
:1001D0007A7001F016FD01F0F3FF02F001FA4FF41E
:1001E0007A7001F00EFD4FF480512C4800F02DFB89
:1001F00053E002F0D5F88046072002F0F4F80646F6
:10020000082002F0F0F80446052002F0ECF807465A
:10021000062002F0E8F80546A7F17F004043C5F14B
:100220007F01C5F17F0201FB0200B0F5617F04DBB5
:100230002946384601F088FE16E0A6F17F004043CB
:10024000C4F17F01C4F17F0201FB0200B0F5617FC0
:1002500004DB2146304601F025FF05E000231A4665
:100260001946184601F0D8FDB8F10A0F05D14FF430
:1002700080510A4800F0E7FA04E04FF48051074843
:1002800000F0E3FA064828B900231A461946184632
:1002900001F0C2FD642001F0B4FCAAE700080140AF
:1002A000B3220008704700BFFEE700BFFEE700BFB3
:1002B000FEE700BFFEE770477047704770470000D9
:1002C0000CB50020019000906C48006840F480302C
:1002D0006A49086000BF6948006800F40030009077
:1002E0000198401C0190009818B90198B0F5A06FD2
:1002F000F1D16248006800F4003010B10120009094
:1003000001E0002000900098012843D15C4800687B
:1003100040F010005A4908600846006820F00300C9
:1003200008600846006840F00200086053484068D2
:10033000524948600846406848600846406840F4B2
:10034000806048600846406820F47C104860084699
:10035000406840F4E81048600846006840F080704B
:10036000086000BF4548006800F000700028F9D020
:100370004248406820F00300404948600846406811
:1003800040F00200486000BF3C48406800F00C00AC
:100390000828F9D10CBD10B5FFF792FF10BD10B5BC
:1003A0003648006840F0010034490860084640685B
:1003B00034490840314948600846006832490840DD
:1003C0002E4908600846006820F48020086008462E
:1003D000406820F4FE0048604FF41F008860FFF77B
:1003E000DAFF4FF000602949086010BD10B5002108
:1003F00000200022214B5B6803F00C0121B104298D
:1004000006D0082928D107E0214B224C236027E0A1
:100410001F4B204C236023E0184B5B6803F47010E3
:10042000164B5B6803F48032022303EB904022B941
:10043000194B4343174C23600DE0104B5B6803F4EA
:10044000003323B1144B4343124C236003E0104BA1
:100450004343104C236003E00D4B0E4C236000BF60
:1004600000BF064B5B68C3F303130C4CE15C094B04
:100470001B68CB40074C236010BD000000100240F9
:10048000002002400000FFF8FFFFF6FE08ED00E04C
:1004900000127A000000002000093D000400002046
:1004A00030B527480068C822B0FBF2F1B1F1807F77
:1004B00001D301201DE021F07F40401E4FF0E022DB
:1004C000506150170F22002807DA13071D0E1D4B2D
:1004D00000F00F04241F1D5503E013071C0E1A4BD8
:1004E0001C5400BF00204FF0E022906107201061F3
:1004F000002008B100BFFEE74FF0E020006920F0C7
:1005000001004FF0E021086130BD01B50F490098AE
:1005100008604FF0E020006940F001004FF0E0215A
:10052000086100BF094800680028FBD108BD0748E2
:10053000006820B105480068401E04490860704703
:100540000000002018ED00E000E400E014000020AE
:1005500031490143314A1160704770B500210023D1
:100560000F22C47804B32D4C246804F4E064C4F56D
:10057000E064210AC1F10403CA40447804FA03F19B
:100580008478144021430901254C0678A15504784C
:1005900004F01F050124AC4005786D11AD0005F194
:1005A000E025C5F8004109E0047804F01F050124A6
:1005B000AC401C4D0678761145F8264070BD1A4AAD
:1005C0000A400243154B1B1F1A60704739B1134A8A
:1005D000121D12680243114B1B1D1A6006E00F4AE0
:1005E000121D126882430D4B1B1D1A6070470428B0
:1005F00008D14FF0E021096941F004014FF0E022F9
:10060000116107E04FF0E021096921F004014FF08A
:10061000E0221161704700000000FA050CED00E0D7
:1006200000E400E080E100E080FFFF1F10B5044619
:10063000CC48844208D10121042000F02DFB002188
:10064000042000F029FB46E0C748844208D101217C
:10065000082000F021FB0021082000F01DFB3AE0FB
:10066000C248844208D10121102000F015FB00216E
:10067000102000F011FB2EE0BD48844208D101217A
:10068000202000F009FB0021202000F005FB22E0E3
:10069000B848844208D10121402000F0FDFA002131
:1006A000402000F0F9FA16E0B348844208D1012155
:1006B000802000F0F1FA0021802000F0EDFA0AE03D
:1006C000AE48844207D10121801500F0E5FA0021EF
:1006D000A01500F0E1FA10BD10B50121084600F0A8
:1006E000DBFA0021012000F0D7FA10BD2DE9F0411E
:1006F000024600250026002000230024002791F850
:1007000003C00CF00F0591F803C00CF0100CBCF105
:10071000000F03D091F802C04CEA050591F800C023
:10072000BCF1000F31D0146800202BE04FF0010C19
:100730000CFA00F3B1F800C00CEA03069E4220D187
:1007400083004FF00F0C0CFA03F7BC4305FA03FCCF
:100750004CEA040491F803C0BCF1280F06D14FF015
:10076000010C0CFA00FCC2F814C00AE091F803C0B6
:10077000BCF1480F05D14FF0010C0CFA00FCC2F897
:1007800010C0401C0828D1D31460B1F800C0BCF1DF
:10079000FF0F34DD546800202EE000F1080C4FF00C
:1007A000010808FA0CF3B1F800C00CEA03069E42F7
:1007B00021D183004FF00F0C0CFA03F7BC4305FA6C
:1007C00003FC4CEA040491F803C0BCF1280F05D1E6
:1007D00000F1080C08FA0CF8C2F8148091F803C074
:1007E000BCF1480F07D100F1080C4FF0010808FADE
:1007F0000CF8C2F81080401C0828CED35460BDE825
:10080000F0814FF6FF710180022181700421C170D7
:1008100070470246002093680B400BB1012000E0B6
:10082000002070470146886880B270470246002069
:10083000D3680B400BB1012000E000207047014657
:10084000C86880B2704701617047416170470AB162
:10085000016100E041617047C16070474FF4803230
:100860000A438261816182618269826970470246BE
:100870000020434B18684FF68073184040EA02107E
:1008800008433F4B186070473E49C8617047F0B558
:100890000A46002300240021002500F00046B6F19E
:1008A000004F02D1364EF16901E0354E7168C0F358
:1008B000034583B200F44016B6F5401F08D121F07D
:1008C00070612F4E766826F070662D4F7E6012E0C4
:1008D00000F48016B6F5801F06D1032606FA05F44B
:1008E000A14341F0706106E0460D360103FA06F6B9
:1008F000B14341F0706122B1460D360103FA06F6AC
:10090000314300F00046B6F1004F02D11C4EF161B8
:1009100001E01B4E7160F0BD30B500228B071C0F4B
:100920000F2303FA04F2164B08338C1053F82430CB
:100930009343134C08348D1044F8253023468C1013
:1009400053F824308C07240F00FA04F423430C4C92
:1009500008348D1044F8253030BD0A49DC31086078
:100960007047000000080140000C014000100140E9
:100970000014014000180140001C0140002001400B
:100980000000014000002042DF48006840F0010004
:10099000DD49086008464068DC490840DA4948609B
:1009A00008460068DA490840D749086008460068E8
:1009B00020F4802008600846406820F4FE0048606B
:1009C0004FF41F0088607047CF49096821F48031D7
:1009D000CD4A11601146096821F480211160B0F5FB
:1009E000803F03D0B0F5802F0ED106E0C6490968DC
:1009F00041F48031C44A116007E0C349096841F4F9
:100A0000A021C14A116000E000BF00BF704710B5CF
:100A100001460022002300204A11012A02D1BA4CCB
:100A2000236806E0022A02D1B74C236A01E0B64CE3
:100A3000636A01F01F02012494401C400CB10120A4
:100A400000E0002010BD38B50020009000240025F3
:100A500000BF3120FFF7DBFF05460098401C0090E7
:100A60000098B0F5A06F01D0002DF2D03120FFF733
:100A7000CEFF08B1012400E00024204638BD014625
:100A80000020A14A106820F0F80040EAC100106080
:100A90007047A04908607047024600209A4B58688A
:100AA00020F47C1042EA01031843974B58607047CA
:100AB00098490866704701460020934A506820F024
:100AC00003000843506070478F48406800F00C00F6
:100AD0007047014600208C4A506820F0F00008431F
:100AE0005060704701460020874A506820F4E0605B
:100AF00008435060704701460020834A506820F444
:100B0000605040EAC1005060704729B17E4A527A75
:100B100002437D4B5A7204E07B4A527A82437A4BFD
:100B20005A7270477B49D8310860704701460020EF
:100B3000754A506820F440400843506070470021D7
:100B4000714A20321170704A82F82010012802D0B8
:100B500004280AD104E001216B4A2032117005E01B
:100B60000521694A2032117000E000BF00BF7047C4
:100B70006949086070476449096A0143624A116221
:100B80007047654944390860704730B5002100223C
:100B9000002400235C4D6D6805F00C0121B104298F
:100BA00005D0082923D105E05C4D056022E05B4DAE
:100BB00005601FE0544D6D6805F47012524D6D686C
:100BC00005F48034022505EB92421CB9544D55437F
:100BD00005600BE04C4D6D6805F400351DB1504DBE
:100BE0005543056002E04D4D5543056002E04B4D15
:100BF000056000BF00BF444D6D6805F0F0010909B4
:100C0000484D6B5C0568DD4045603F4D6D6805F4FF
:100C1000E061090A434D6B5C4568DD4085603A4DF3
:100C20006D6805F46051C90A3E4D6B5C4568DD4056
:100C3000C560354D6D6805F44041890B3A4D6B5CDC
:100C4000C568B5FBF3F5056130BD29B12E4A52697F
:100C500002432D4B5A6104E02B4A526982432A4BCE
:100C60005A61704729B1284A92690243264B9A611A
:100C700004E0254A92698243234B9A61704729B167
:100C8000214AD2690243204BDA6104E01E4AD2694C
:100C900082431D4BDA61704729B11B4AD268024377
:100CA000194BDA6004E0184AD2688243164BDA60C6
:100CB000704729B1144A12690243134B1A6104E0C8
:100CC000114A12698243104B1A6170471249403928
:100CD000086070470F49C86470470B49C871704776
:100CE0000948406A40F080700749486270470146F1
:100CF0000020054A92680A400AB1012000E0002065
:100D00007047014988727047001002400000FFF8E8
:100D1000FFFFF6FE000042428004424200127A00C9
:100D200000093D00180000202800002010B50446EE
:100D3000FE48844208D10121C014FFF7ADFF002115
:100D4000E014FFF7A9FFC4E0B4F1804F08D10121FE
:100D50000846FFF7AEFF00210120FFF7AAFFB8E029
:100D6000F348844208D101210220FFF7A2FF0021AD
:100D70000220FFF79EFFACE0EE48844208D101213B
:100D80000420FFF796FF00210420FFF792FFA0E068
:100D9000E948844208D101210820FFF78AFF002199
:100DA0000820FFF786FF94E0E448844208D101213F
:100DB0001020FFF77EFF00211020FFF77AFF88E068
:100DC000DF48844208D101212020FFF772FF002173
:100DD0002020FFF76EFF7CE0DA48844208D1012131
:100DE0004014FFF759FF00216014FFF755FF70E032
:100DF000D548844209D10121C804FFF74DFF0021E5
:100E00004FF40020FFF748FF63E0D048844209D147
:100E100001210805FFF740FF00214FF48010FFF784
:100E20003BFF56E0CA48844209D101214805FFF73B
:100E300033FF00214FF40010FFF72EFF49E0C548B3
:100E4000844208D101214020FFF733FF00214020D8
:100E5000FFF72FFF3DE0C048844208D101218020E8
:100E6000FFF727FF00218020FFF723FF31E0BB4879
:100E7000844208D101218015FFF71BFF0021A01536
:100E8000FFF717FF25E0B648844209D10121080485
:100E9000FFF702FF00214FF48030FFF7FDFE18E05E
:100EA000B048844209D101214804FFF7F5FE002132
:100EB0004FF40030FFF7F0FE0BE0AB48844208D15E
:100EC00001218804FFF7E8FE00214FF48020FFF79E
:100ED000E3FE10BD00220288944B98420ED0994B3D
:100EE00098420BD0B0F1804F08D0914B984205D07A
:100EF000904B984202D0904B984204D14FF68F739A
:100F00001A404B881A438D4B984207D08C4B98421D
:100F100004D04FF6FF431A40CB881A4302808B88D7
:100F200083850B880385814B98420BD0854B984273
:100F300008D08B4B984205D08A4B984202D08A4BFE
:100F4000984201D10B7A038601238382704770B5E2
:100F5000002400220023058C4FF6FE7635400584E0
:100F6000028C8388048B4FF68F752C40B51E2C4065
:100F70000D882C43751E2A400D892A434D882A432B
:100F80006A4DA8420BD06F4DA84208D0744DA842BC
:100F900005D0744DA84202D0734DA84213D14FF62C
:100FA000F7752A404D892A434FF6FB752A408D88F4
:100FB0002A434FF6FF652B404FF6FF552B408D8996
:100FC0002B43CD892B4383800483CD88858602847F
:100FD00070BD70B5002400220023058C4FF6EF761B
:100FE00035400584028C8388048B48F6FF752C40BD
:100FF0004FF6FF452C400D884FF6FF7606EA052593
:101000002C434FF6DF752A400D8906EA05152A4361
:101010004D8806EA05152A43444DA84202D0494DA1
:10102000A8421DD14FF67F752A404D894FF6FF76B5
:1010300006EA05152A434FF6BF752A408D8806EA51
:1010400005152A434FF6FF352B404FF2FF752B4015
:101050008D8906EA85052B43CD8906EA85052B4354
:1010600083800483CD880587028470BD70B5002419
:1010700000220023058C4FF6FF6635400584028C64
:101080008388848B4FF68F752C404FF6FC752C406F
:101090000D882C434FF6FF552A400D894FF6FF76F9
:1010A00006EA05252A434D8806EA05252A431F4DF1
:1010B000A84202D0234DA8421DD14FF2FF752A400D
:1010C0004D894FF6FF7606EA05252A434FF6FF3590
:1010D0002A408D8806EA05252A434EF6FF752B40E7
:1010E0004DF6FF752B408D8906EA05152B43CD89FA
:1010F00006EA05152B4383808483CD888587028487
:1011000070BD70B5002200230024058C4EF6FF76DA
:1011100035400584038C8488828B48F6FF752A400D
:101120004FF6FF452A400D8820E00000002C0140CA
:101130000004004000080040000C00400010004087
:101140000014004000340140004C014000500140B8
:101150000054014000180040001C004000200040E6
:101160000040014000440140004801404FF6FF7636
:1011700006EA05252A434DF6FF752B400D8906EA40
:1011800005352B434D8806EA05352B43FA4DA84219
:1011900002D0FA4DA84208D14BF6FF752C408D893C
:1011A0004FF6FF7606EA85152C4384808283CD882E
:1011B000A0F84050038470BD828B4FF2FF331A4079
:1011C0008283828B4FF6FF7303EA01231A438283E3
:1011D0007047F0B50C461546002200210026078C0A
:1011E0004EF6FF7C07EA0C070784828B018C4FF6D2
:1011F000FF7707EA043640F6FF473A404FF6FF779D
:1012000007EA05273A434FF6FF7707EA03373A43E1
:10121000D94FB8420ED0D94FB8420BD0B0F1804F61
:1012200008D0D74FB84205D0D64FB84202D0D64FDB
:10123000B84206D14DF6FF77394046F4805739431E
:1012400005E047F6FF57394044F48057394382831D
:101250000184F0BD828B4FF6F3731A408283828B38
:101260000A4382837047F0B50C46154600220021E0
:101270000026078C4FF6FF6C07EA0C070784828B69
:10128000018C4FF6FF7707EA04264FF60C773A40B9
:101290004FF6FF7707EA03172F433A43B64FB8429A
:1012A0000ED0B64FB8420BD0B0F1804F08D0B44F3B
:1012B000B84205D0B34FB84202D0B34FB84206D1BE
:1012C0004FF6FF57394046F48077394305E04FF237
:1012D000FF57394044F48077394382830184F0BD5D
:1012E000028B4FF2FF331A400283028B4FF6FF73DB
:1012F00003EA01231A4302837047F0B50C461546F2
:10130000002200210026078C4FF6EF7C07EA0C072D
:101310000784028B018C4FF6FF7707EA041640F62C
:10132000FF473A404FF6FF7707EA03373A434FF655
:10133000FF7707EA05273A438F4FB8420ED08F4F09
:10134000B8420BD0B0F1804F08D08D4FB84205D0D5
:101350008C4FB84202D08C4FB84206D14FF6DF779F
:10136000394046F01007394305E04FF65F773940C2
:1013700044F01007394302830184F0BD028B4FF61D
:10138000F3731A400283028B0A4302837047F0B55D
:101390000C46154600220021068C4FF6FE773E4093
:1013A0000684028B018C4FF60C7632407E1C06EAD6
:1013B00003162E433243704EB0420ED06F4EB042F1
:1013C0000BD0B0F1804F08D06D4EB04205D06D4EBD
:1013D000B04202D06C4EB04206D14FF6FD7631409D
:1013E00044F00106314305E04FF6F576314044F014
:1013F0000106314302830184F0BD70B505460C46F9
:101400005D4885420ED05D4885420BD0B5F1804FD6
:1014100008D05B48854205D05A48854202D05A48D8
:10142000854200D100E000BF208850B92389A288FE
:1014300061882846FFF7ABFFE1882846FFF79EFF4B
:1014400025E0208804280AD12389A28861882846BB
:10145000FFF753FFE1882846FFF742FF17E0208897
:1014600008280AD12389A28861882846FFF7FBFE55
:10147000E1882846FFF7EEFE09E02389A28861880B
:101480002846FFF7A6FEE1882846FFF795FE70BDC7
:101490002DE9F04105460C4600260127608808B971
:1014A000022600E00026A088012801D1022700E0E2
:1014B00001272088A0B92389A28861882846FFF7E0
:1014C00066FFE1882846FFF759FF23893A463146EF
:1014D0002846FFF712FFE1882846FFF701FF13E0D7
:1014E0002389A28861882846FFF707FFE1882846FC
:1014F000FFF7F6FE23893A4631462846FFF747FFB5
:10150000E1882846FFF73AFFBDE8F0810A884B885A
:101510001A438B881A43CB881A430B891A434B8989
:101520001A438B891A43A0F8442070474FF6FF7185
:10153000818000210180C1804180017270470021BB
:10154000018041808180C180018141818181C1818F
:101550007047002101804180012181800021C180EC
:10156000018170470021018041808180C18001811B
:101570004181818170470000002C0140003401400E
:101580000004004000080040000C004021B1028827
:1015900042F00102028004E002884FF6FE731A4016
:1015A0000280704731B1B0F8442042F40042A0F804
:1015B000442005E0B0F84420C2F30E02A0F8442015
:1015C00070471AB183890B43838102E083898B437F
:1015D000838170478182704741EA0203A0F8483056
:1015E00070471AB183890B43838102E083898B435F
:1015F0008381704701894FF6F8721140018170476D
:101600000A46002101894FF68F7319401143018169
:10161000704730B504460D4629462046FFF7F0FFD7
:10162000208940F00700208130BD2DE9F0410446BB
:101630000D4616461F46602D06D13B460122314617
:101640002046FFF75AFE05E03B4601223146204680
:10165000FFF79DFE29462046FFF7D2FF208940F084
:1016600007002081BDE8F08130B50C4600210189DA
:10167000C9B24FF6FF7505EA0325154325432943F3
:10168000018130BD2DE9F04105460E4617469846CA
:10169000002443463A4631462846FFF7E5FF2C89A9
:1016A0004FF6F870044044F007044FF68F70044082
:1016B00044F070042C81BDE8F081F0B504460D467D
:1016C00016461F463B46324629462046FFF7CCFFCA
:1016D000208940F480402081F0BD018582827047DE
:1016E0000A46002101884FF68F731940114301808B
:1016F0007047F0B50C4615461E4600210022002317
:101700000189028B038C4FF6F877394021434FF65D
:10171000FC473A4040F201173A434FF6DD773B4031
:101720004FF6FF7707EA06172F433B4301810283F9
:101730000384F0BD0A460021018B4FF68F731940D8
:101740001143018370470A460021018B48F6FF735D
:1017500019404FF6FF7303EA0223194301837047D0
:101760000A460021818B4FF68F7319401143818304
:1017700070470A460021818B48F6FF7319404FF6E7
:10178000FF7303EA022319438183704721B1028862
:1017900042F08002028004E002884FF67F731A4014
:1017A0000280704721B1828842F00402828004E006
:1017B00082884FF6FB731A408280704721B182887D
:1017C00042F00802828004E082884FF6F7731A40E4
:1017D0008280704721B1828842F00102828004E059
:1017E00082884FF6FE731A40828070470A460021B5
:1017F000018B4FF6F77319401143018370470A4676
:101800000021018B4FF2FF7319404FF6FF7303EA7B
:1018100002231943018370470A460021818B4FF64A
:10182000F77319401143818370470A460021818B69
:101830004FF2FF7319404FF6FF7303EA0223194377
:10184000818370470A460021018B4FF6FB731940D4
:101850001143018370470A460021018B4FF6FF3385
:1018600019404FF6FF7303EA0223194301837047BF
:101870000A460021818B4FF6FB7319401143818387
:1018800070470A460021818B4FF6FF3319404FF60F
:10189000FF7303EA02231943818370470A4600213C
:1018A000018B4FF67F7319401143018370470A463D
:1018B0000021018BC1F30E014FF6FF7303EA0223EF
:1018C0001943018370470A460021818B4FF67F73CD
:1018D00019401143818370470A460021818BC1F36F
:1018E0000E014FF6FF7303EA022319438183704709
:1018F0000A460021018C4FF6FD7319401143018403
:1019000070470A460021018C4FF6F77319401143C6
:10191000018470470A460021018C4FF6DF7319409D
:101920004FF6FF7303EA02131943018470470A4616
:101930000021018C4FF67F7319404FF6FF7303EAC5
:1019400002131943018470470A460021018C4FF6A7
:10195000FF5319404FF6FF7303EA02231943018432
:1019600070470A460021018C4FF2FF7319404FF671
:10197000FF7303EA02231943018470470A460021DA
:10198000018C4DF6FF7319404FF6FF7303EA0233E3
:1019900019430184704730B5002301248C40A3B261
:1019A000048C9C430484048C02FA01F5ADB22C43F0
:1019B000048430BD30B5002304248C40A3B2048CD1
:1019C0009C430484048C02FA01F5ADB22C430484D8
:1019D00030BD70B50346002000241846183001259C
:1019E0008D40ACB21D8CA5431D8409B1082909D1D5
:1019F00000EB6100056825F070050560056815437A
:101A000005600EE00D1FC5F34E052844056825F45A
:101A1000E045056005684FF6FF7606EA0226354385
:101A2000056070BD21B1028842F00202028004E02C
:101A300002884FF6FD731A400280704721B1028878
:101A400042F00402028004E002884FF6FB731A4061
:101A50000280704721B1828842F08002828004E0D7
:101A600082884FF67F731A408280704702884FF653
:101A7000F7731A40028002880A4302807047828806
:101A80004FF68F731A40828082880A4382807047A3
:101A900002894FF6F8731A40028102890A430281D3
:101AA000704702894FF67F731A40028102890A4308
:101AB00002817047818470478185704781867047B5
:101AC0000187704781877047A0F8401070470288EF
:101AD0004FF6FF431A40028002880A430280704793
:101AE0000146888E70470146088F70470146888FEF
:101AF00070470146B1F8400070470146888C704736
:101B00000146088D704702460020138A0B400BB136
:101B1000012000E000207047CA430282704730B5C0
:101B20000246002000230024158A05EA0103958956
:101B300005EA010413B10CB1012000E0002030BD22
:101B4000CA4302827047000009488047094800479D
:101B5000FEE7FEE7FEE7FEE7FEE7FEE7FEE7FEE75D
:101B6000FEE7FEE704480549054A064B70470000BA
:101B70009F030008ED000008C0000020C006002000
:101B8000C0020020C002002010B56FF00400FEF774
:101B90002EFD2E4800682E49B0FBF1F02D4908704B
:101BA0000846007800EB4001C1EBC0104FF6FF7112
:101BB00001EAC0002849088010BD0146254A127874
:101BC0004A434FF0E0235A6100229A611A46126993
:101BD00042F001021A6100BF4FF0E022106900F0EC
:101BE00001021AB100F48032002AF5D04FF0E02251
:101BF000126922F001024FF0E0231A6100229A617B
:101C000070470146144A12884A434FF0E0235A6154
:101C100000229A611A46126942F001021A6100BF5D
:101C20004FF0E022106900F001021AB100F4803296
:101C3000002AF5D04FF0E022126922F001024FF0A5
:101C4000E0231A6100229A61704700000000002022
:101C500000127A002C0000202E000020002800DA5C
:101C60004042704730B589B005460C46012102203C
:101C7000FFF705F800210420FEF709FE0121FC48CA
:101C8000FEF705FE01210820FEF7ECFF0120ADF86C
:101C9000200018208DF8230003208DF8220008A9C9
:101CA000F448FEF723FDADF81850ADF814400020BD
:101CB000ADF81A00ADF8160005A9EF48FFF70AF9CC
:101CC0007020ADF804000120ADF806000220ADF848
:101CD0000C0001A9E848FFF7C9F90821E648FFF719
:101CE0009BFD0121E448FFF751FC09B030BD30B540
:101CF00089B005460C4600210420FEF7C8FD0121ED
:101D0000DB48FEF7C4FD01210846FEF7B8FF0121BC
:101D10000420FEF7A7FF0F20ADF8200018208DF853
:101D2000230003208DF8220008A9D448FEF7DEFC2A
:101D3000ADF81850ADF814400020ADF81A00ADF819
:101D4000160005A94FF08040FFF7C4F87020ADF8E9
:101D500004000120ADF806000220ADF80C0001A936
:101D60004007FFF7F4F80821C806FFF73FFD702091
:101D7000ADF804000120ADF806000220ADF80C001B
:101D800001A94007FFF725F90821C806FFF737FD2D
:101D90007020ADF804000120ADF806000220ADF877
:101DA0000C0001A94007FFF761F90821C806FFF7F9
:101DB00033FD7020ADF804000120ADF806000220CC
:101DC000ADF80C0001A94007FFF79BF90821C806F0
:101DD000FFF72BFD01218807FFF7D8FB09B030BDC5
:101DE00008B500210420FEF752FD0121A048FEF7AE
:101DF0004EFD01210820FEF735FF4FF47F40ADF87E
:101E0000000010208DF8030003208DF802006946C1
:101E10009848FEF76BFC08BD2DE9F04104460D46DD
:101E200016461F46002F09DA4FF400719148FEF75D
:101E30000CFD4FF480718F48FEF705FD002F09DD82
:101E40004FF480718B48FEF700FD4FF40071894814
:101E5000FEF7F9FC002E09DA4FF480618548FEF7A1
:101E6000F4FC4FF400618348FEF7EDFC002E09DD21
:101E70004FF400617F48FEF7E8FC4FF480617D4835
:101E8000FEF7E1FC002D09DD4FF480517948FEF7A3
:101E9000DCFC4FF400517748FEF7D5FC002D09DA41
:101EA0004FF400517348FEF7D0FC4FF48051714855
:101EB000FEF7C9FC002C09DD4FF400416D48FEF728
:101EC000C4FC4FF480416B48FEF7BDFC002C09DADE
:101ED0004FF480416748FEF7B8FC4FF40041654875
:101EE000FEF7B1FCB7F1000801DB404601E0C8F1A4
:101EF000000081B24FF08040FFF7E0FDB6F100082E
:101F000001DB404601E0C8F1000081B24FF08040A3
:101F1000FFF7D6FDB4F1000801DB404601E0C8F14F
:101F2000000081B24FF08040FFF7CCFDB5F1000812
:101F300001DB404601E0C8F1000081B24FF0804073
:101F4000FFF7C2FDBDE8F0812DE9F34F89B00D46E2
:101F50000020089004908346099800F065FC002258
:101F6000474BCDE9020100F081FD074600F082FBFE
:101F70000446284600F058FC0022414BCDE90201FE
:101F800000F068FD074600F075FB83465946584649
:101F900000F040FF80462146204600F03BFF4146CE
:101FA000039000F079FE0746364900F0FFFF70D835
:101FB0005946204600F070FE019000F041FE324A82
:101FC000324BCDE9020100F047FC074600F052FB1E
:101FD000064684F000405946009000F05DFE0190F6
:101FE00000F02EFE0746284A284B00F035FCCDE9CC
:101FF000020100F03FFB814684F00048594640460C
:1020000000F04AFE074600F01BFE1F4A1F4BCDE9B9
:10201000000100F021FCCDE9020100F02BFB82461B
:102020005946204600F038FE019000F009FE0746B0
:10203000154A164B00F010FCCDE9020100F01AFB26
:102040000890504600F096FE0790089800F092FE27
:102050000690304600F08EFE0590484600F08AFE5D
:102060000490DDE90423DDE90610FFF7D5FE16E054
:1020700000023000000C0140000400400008014054
:1020800000C05F4000006144CC5D4BC8073DE73FA6
:10209000FFE700231A4619461846FFF7BDFE0BB0AE
:1020A000BDE8F08F2DE9F34F89B00D460020079071
:1020B00003900290099800F0B7FB00223D4BCDE958
:1020C000000100F0D3FC074600F0D4FA044628468D
:1020D00000F0AAFB0022374BCDE9000100F0BAFC6A
:1020E000074600F0C7FA02902146204600F092FE13
:1020F0000746314900F05AFF52D8204600F0A0FDB3
:102100004FF033322D4BCDE9000100F0A5FB07461F
:1021100000F0B0FA0646204600F092FD4FF0333250
:10212000264BCDE9000100F097FB074600F0A2FA2C
:10213000814684F0004B584600F082FD07464FF080
:1021400033321E4B00F088FBCDE9000100F092FA1B
:10215000824684F0004B584600F072FD07464FF06F
:102160003332164B00F078FBCDE9000100F082FA23
:102170000790504600F0FEFD0690079800F0FAFD2B
:102180000590304600F0F6FD0490484600F0F2FD60
:102190000390DDE90323DDE90510FFF73DFE05E0CF
:1021A00000231A4619461846FFF736FE0BB0BDE865
:1021B000F08F000000C05F40000061443333E33F14
:1021C00008B500210420FEF762FB0121FC48FEF760
:1021D0005EFB01210420FEF745FD4FF4F050ADF801
:1021E000000010208DF8030003208DF802006946DE
:1021F000F448FEF77BFA4FF48051F248FEF725FBD6
:102200004FF48070ADF8000028208DF80300032003
:102210008DF802006946EB48FEF768FA0120EA49AA
:102220000860EA49C1F8AC01E749091D086008BD2A
:1022300038B50446012000900020E549487001208F
:1022400000902EE0BDF80000204018B10120DE49CA
:10225000086002E00020DC4908600120DA4908310A
:1022600008600520FFF7A9FC0020D849C1F8AC019F
:102270000520FFF7A2FC0120D449C1F8AC010846B3
:10228000D0F8200130B1D2484078BDF800100843A2
:10229000CF494870BDF800004FF6FF7101EA4000D9
:1022A0000090BDF80000FF28CCDD1020FFF785FC72
:1022B00038BD10B50020C449091D0860C54908781B
:1022C000FFF7B6FFC3494878FFF7B2FF0120BF49C7
:1022D000C1F8A801BE484078732801D1002010BD84
:1022E0000120FCE71CB50020019001200090002097
:1022F000B549091D0860B7490878FFF799FFB54946
:102300004878FFF795FF0220019036E00120009009
:1023100027E00120AC49083108600520FFF74DFC9B
:102320000020AA49C1F8AC010520FFF746FC0120B6
:10233000A649C1F8AC010846D0F8200150B1A44824
:102340009DF80410405CBDF800100843A0499DF8BA
:1023500004208854BDF800004FF6FF7101EA4000E8
:102360000090BDF80000FF28D3DD1020FFF725FC0A
:102370009DF80400401CC0B201909DF8040009289B
:10238000C4DB01209049091D08601CBD002004E049
:1023900000218F4A1154411CC8B20928F8DB70474C
:1023A00010B5FFF7F3FFFFF79DFF8948C078884914
:1023B000097940EA01208849088000240FE0874815
:1023C00010F81400401E012101FA00F0824909882A
:1023D000084010B9601CC0B210BD601CC4B2102C03
:1023E000EDDB0020F8E701467948405C704770B5A6
:1023F00005460C4600207449091D08601020FFF7AF
:10240000DCFB0120FFF714FF4220FFF711FF002043
:10241000FFF70EFF2846FFF70BFF2046FFF708FFE8
:102420000020FFF705FF0020FFF702FF0020FFF765
:10243000FFFE0020FFF7FCFE01206449C1F8A8015F
:102440001020FFF7BAFB70BD10B500205E49091DD2
:1024500008601020FFF7B1FB0120FFF7E9FE4220E2
:10246000FFF7E6FE0020FFF7E3FE0020FFF7E0FEA7
:102470000020FFF7DDFE01205449C1F8A80110201B
:10248000FFF79BFB10BD10B500204F49091D0860E8
:102490001020FFF792FB0120FFF7CAFE4320FFF751
:1024A000C7FE0020FFF7C4FE0120FFF7C1FE002099
:1024B000FFF7BEFE0020FFF7BBFE0020FFF7B8FECF
:1024C0000020FFF7B5FE0020FFF7B2FE01203F49D4
:1024D000C1F8A8011020FFF770FB10BD10B5002057
:1024E0003949091D08600120FFF7A2FE4420FFF7CB
:1024F0009FFE0020FFF79CFE0120FFF799FEEE20D3
:10250000FFF796FE0020FFF793FE0020FFF790FEF6
:102510000020FFF78DFE0020FFF78AFE01202B49E7
:10252000C1F8A8011020FFF748FB10BD10B500202E
:102530002549091D08601020FFF73FFB0120FFF728
:1025400077FE4D20FFF774FE0020FFF771FE00209C
:10255000FFF76EFE0120FFF76BFE01201B49C1F85B
:10256000A8011020FFF729FB10BD10B50020164967
:10257000091D08601020FFF720FB0120FFF758FE1F
:102580004320FFF755FE0020FFF752FE0020FFF723
:102590004FFE5A20FFF74CFE5A20FFF749FE5A2003
:1025A000FFF746FE5A20FFF743FE5A20FFF740FE92
:1025B00001200649C1F8A8011020FFF7FEFA10BD5E
:1025C0000002300000080140A40121420000214225
:1025D0005400002032000020300000203400002091
:1025E00010B5FFF731FFFFF72FFFFFF72DFFFFF7C4
:1025F0004AFFFFF773FFFFF799FFFFF7B6FF10BD24
:10260000704770477047754600F028F8AE460500E1
:102610006946534620F00700854618B020B5FFF7FD
:10262000A1FABDE820404FF000064FF000074FF040
:1026300000084FF0000B21F00701AC46ACE8C009E0
:10264000ACE8C009ACE8C009ACE8C0098D467047E9
:102650000446AFF300802046FDF78FFD0048704729
:102660006000002001491820ABBEFEE726000200F2
:102670007047000021F00042A2F16052B2F5801FC5
:1026800001F0004328BFD2F17F6C0BD95FEA001C38
:1026900043EAC20242EB507018BF704728BF20F0D7
:1026A00001007047B2F5801FBCBF184670474FEA63
:1026B000410C1CF5001F02D2084600F072BC70B538
:1026C00000F074F900000089FFF7F6BF4FF00040FA
:1026D000A0F580007047000010B591EA030F48BFD5
:1026E00083F0004300F1CA81841A71EB030C05D218
:1026F000121943EB0C03001B61EB0C01DFF824E122
:102700004FEA1154A4EB135C1EEA430F18BF9EEA74
:10271000445F73D023EA0E03DCF1200E21EA04515A
:1027200043F4801332D322FA0CFE10EB0E0023FA8E
:102730000CFE41EB0E01CCF1200E03FA0EFE10EB65
:102740000E0051F10001B1F5801FCCF1200E32D204
:1027500001EB045112FA0EF2BDE8104058BF704769
:10276000401C38BF5FEA420218BF7047002814BF00
:1027700020F0010041F100014FEA410313F5001F71
:1027800038BF7047A1F1C04100F05EB9012A43EBA8
:102790000302ACF1200CDCF11F0E32BF4FF0000E33
:1027A00023FA0CF310EB030041EB0451B4EB115F7F
:1027B000D0D0A1EB045101F5801149085FEA300047
:1027C00001EB04510ED350F1000038BF12FA0EFE97
:1027D00008D1BDE81040C9E7401C38BF5FEA42029B
:1027E000CAD1C3E7BDE810404FEA410313F5001F0B
:1027F00038BF7047A1F1C04100F026B99EEA445F9E
:1028000008D011EA5E0FBDE8104004BF01F000419E
:1028100000207047BDE8104070B500F0C7F800BF59
:1028200064FBBE3E0000E0FF10F0004248BF4042A3
:10283000B0FA80F310FA03F10AD0C3F11D0303F5D7
:1028400080634FEA415002EB035202EBD121704703
:102850004FF0000070470000DFF848C170B51CEA77
:10286000111E1EBF1CEA13159EEA0C0F95EA0C0FF1
:1028700000F06F8081EA030423EA4C134EEAD47E11
:1028800021EA4C1141F4801143F48013AE44A1FBC2
:10289000024CA0FB0365AEF17F7E361955EB0C05AB
:1028A000A1FB034C4CF10003A0FB021C16EB0C0631
:1028B000654153F10003094218BF46F0010613F4C5
:1028C000007F0BD14FEA03314FEA0530340341EA70
:1028D000155140EA16506FF003020AE04FEAC32197
:1028E0004FEAC520F40241EA555140EA56506FF0D4
:1028F000020202EB2E4201EB025585EACE710AD0AC
:102900005FEA440C18BF24F0004450F1000041F18C
:10291000000120EAD47040F2FE7C624500D270BD16
:10292000A84214BF4FF080444FF04044002E08BF2F
:102930000024BEF1806FA8BFA1F1C041BDE8704086
:1029400080F282804FF0000001F1C04101F00041AF
:1029500070479EEA0C0F0CEA131518BF95EA0C0F8E
:1029600006D04FF0000081EA030E0EF0004170BD6A
:1029700000F01CF88900013E00F007B800F009B82B
:102980004FEA430C5FEA5C5C08D081EA030100F087
:102990005BB84FEA410C5FEA5C5CF6D14FF0000097
:1029A000014970470000FF070000F87F0EF1020E9A
:1029B0002EF0030E5EF8046B364205D4012A43EB79
:1029C000030515F5001F12D8012841EB010C1CF579
:1029D000001F0CD80ED14FEAD17C15F5001F0CEB6F
:1029E0004C0C0CF1020C08BF4CEBD37C04E04FF014
:1029F000080C01E04FEAD37C0CEB4C0526FA05F6F7
:102A000006F00706B6F1040C06D20EEB860CBDE804
:102A100070404CF0010C6047DFE80CF0090B02023B
:102A20004FF000414FF00000A1F5002170BD1946A4
:102A30001046012851EB010418BFD4F5001484BFDF
:102A4000002001F0004170BD0808A0F500114FEA18
:102A50003101704791EA030F10B581F000413FF555
:102A600043AE83F0004300F009B8000010B591EACE
:102A7000030F48BF83F000433FF536AE841A71EB75
:102A8000030C07D212198CF0004C43EB0C03001B13
:102A900061EB0C01DFF8A4E14FEA1154A4EB135CE5
:102AA0001EEA430F18BF9EEA445F00F0B08023EA9D
:102AB0006E03524221EA0451C3EB6E0338BF5B1E22
:102AC000DCF1200E25D322FA0CFE10EB0E0043FAA7
:102AD0000CFE41EB0E01CCF1200E03FA0EFE10EBC2
:102AE0000E0051F10001CCF1200E29D412FA0EF2A1
:102AF00001EB0451BDE8104058BF7047401C1CBF9B
:102B0000B2F1004F704700280CBF491C20F00100B3
:102B1000704712EB020E43EB030218BF4FF0010E99
:102B20004EEA4202ACF1200CDCF11E0E54D943FAFD
:102B30000CFE10EB0E0051F1FF31CCF11E0ED5D57D
:102B40000EF1010E12FA0EFE404141EB010101EBC4
:102B5000445C5FEA5C5C10D910EBDE7001EB045161
:102B600038BFBEF1004FBDE8104018BF70470028C5
:102B70000CBF491C20F00100704730D24FEAD42C22
:102B800011F5001124F400641BD0B1FA81F20B3A64
:102B9000A41AA41ED2F12003914030FA03F3194382
:102BA000904001EBCC71002C01EB0451BDE81040CA
:102BB000A8BF704701F1C0414FF0000001F0004193
:102BC0007047B0FA80F310FA03F100D110BDE41A97
:102BD000173C4805C90AE4E701EB045110BD491050
:102BE00001EB0451BDE810404FEA300002E04FF025
:102BF000000170474A0008BF0042F8D0B2F5001F3C
:102C000028BF704701F000414FF0000070479EEA76
:102C1000445F07D011EA5E0FBDE8104004BF0021F9
:102C200000207047BDE8104070B5FFF7BFFE00BF41
:102C300040DFF63E83F00041104670470000E0FFA1
:102C400043004FEAD30C4FEA3C0C43401FBF400700
:102C50000CF1605113F0FE4F70471CF0006F03D170
:102C600000200CF0004170470CF0004343EA507024
:102C700010B540EACC0000F04EF900BF0000009211
:102C80004FEA0001FFF7E0BE4FF000414FF00000B7
:102C9000A1F500217047000090EA010F48BF81F0C4
:102CA000004100F1BC81421A3CBF801A89184FEAEA
:102CB000D0524FF07F4C1CEA410FA2EBD15318BF0A
:102CC0009CEA026F00F03B804FF0004C4CEA002081
:102CD0004CEA012121FA03FC10EB0C0C1ED202F18C
:102CE000FF325FEA1C2040EBC25038BF70471CF037
:102CF0007F0F4FEA400C18BFBCF17F4F38BF7047C1
:102D0000C3F12003994008BF20F00100BCF17F4FC0
:102D100038BF7047A0F1C04000F043B94FEA3C0013
:102D2000000A40EBC25028BF1CF0FF0F4FEA400CD6
:102D3000E6D018BFBCF17F4F38BF7047EAE79CEA86
:102D4000026F05D010EA5C0F08BF00F0004070472A
:102D500010B500F0E0F800BF64FBBE3E401058BF65
:102D6000C0F14040491058BFC1F140418142EFF3EA
:102D70000080704741000B0ED3F19E0208D950F439
:102D800000034FEA032323FA02F048BF4042704792
:102D900010B500F0C0F800BF4992248000207047B1
:102DA0006FF0004282EA20007047000050EA010CF8
:102DB00000F113801CF5000F58BFBCF5000F01D4C3
:102DC0008842704707D710F5000F58BF11F5000F64
:102DD00015D488427047894270471CF5000F04D50E
:102DE000BCF5000FF7D5814270474FF0807C1CEB9B
:102DF000400F38BF1CEB410F01D28142704710B524
:102E000000F089F8922449004FF000504FF08051B3
:102E1000FFF7A4BF4FF47F0C1CEAD0121EBF1CEAC0
:102E2000D11392EA0C0F93EA0C0F00F0478090EA5E
:102E3000010F48BF42F480724FF0004C4CEA002072
:102E40004CEA012102EB0302A0FB0113A2F50002F0
:102E5000002918BF43F001035B0028BF4FEA33038A
:102E600042EB22425FEA132C4CEBC2502EBFBCEB6C
:102E7000436FB2F57C0F70474FEA036CBCF1004F13
:102E800008BF20F00100B2F57C0F38BF70470BD5AA
:102E900082F0FF0212F5803FC8BF704700F1C040CA
:102EA000D8BF00F00040704700F5000C5FEA4C0C02
:102EB00048BF7047B0F1C04000F073B890EA010F0E
:102EC0000CEAD11348BF42F48072624538BF6345B3
:102ED00004D280EA010000F00040704710B500F015
:102EE0001AF800BF8900013E00F007B800F009B8E9
:102EF0005FEA410C5FEA1C6C08D080EA010000F038
:102F000050B85FEA400C5FEA1C6CF6D14FF000400D
:102F1000A0F5800070470EF1020E2EF0030E5EF851
:102F2000044B244204D44FEA4102B2F17F4F11D83E
:102F30004FEA4003B3F17F4F0CD80ED14FEAD07C5B
:102F4000B2F17F4F0CEB4C0C0CF1020C08BF4CEBB8
:102F5000D17C04E04FF0080C01E04FEAD17C0CEB8F
:102F60004C0324FA03F404F00704B4F1040C06D271
:102F70000EEB840CBDE810404CF0010C6047DFE81C
:102F80000CF0070802024FF00040A0F5800010BDD1
:102F90000846420018BFD2F1807288BF00F000409E
:102FA00010BDFF2141EAD050C005704751EA000C26
:102FB00000F113801CF5000F58BFBCF5000F01D4C1
:102FC0008142704707D711F5000F58BF10F5000F69
:102FD00015D481427047894270471CF5000F04D513
:102FE000BCF5000FF7D5884270474FF0807C1CEB92
:102FF000410F38BF1CEB400F01D28842704780EA76
:10300000010081EA000180EA0100FFF7F8BE00003C
:1030100090EA010F48BF81F000413FF544AE421AEB
:1030200004D882F00042A0EB020011444FEAD052D3
:103030004FF07F4C1CEA410FA2EBD15318BF9CEA22
:10304000026F4AD04FF0004C4CEA00204CEA0121BC
:1030500021FA03FCB0EB0C0C0FD412F0FE0F36D0AB
:103060005FEA4C001DD5001240EBC25038BF7047DC
:103070001CF03F0F18BF70470BE0A2F101025FEA9E
:103080001C2040EBC25038BF70471CF07F0F18BFA8
:103090007047C3F12003994014BF401E20F0010087
:1030A000704780084FEA122308BF7047B0FA80FCCF
:1030B000A2EB0C02CCF1280C60FA0CF093EA122F70
:1030C00004BF00EBC25070474FEAC3707047130A49
:1030D0005FEADC1008BF7047F6E79CEA026F04D095
:1030E00010EA5C0F08BF0020704710B5FFF713FF10
:1030F00040DFF63E81F00040704700001C310008C0
:103100000000002054000000280100087031000871
:10311000540000206C0600004401000800A24A048C
:103120000000000000000000010203040607080977
:10313000000000000000000001020304010203047B
:10314000060708090204060800000000000001420A
:10315000010002000300040005000600070008004B
:1031600009000A000B000C000D000E000F001000FB
:04000005080000ED02
:00000001FF
